:02000004FF00FB
:28000000010800F000006208C05D89FD0400FFFFFFFF4006000000206A7020020A000030000000100000001016
:F93000000AFB0000020D009DF8380021463A4600F0BAFA044696F88000AAF7CFBA00000AB4184600F045FC402241F202000ABC78F71BFC00F0BCFFBDE8F08103490968002901D00249086093F7F8BE402220006001650094F7EBBF01F04AF84FF000084FF7F5BF01F0C0F8BDE8F0810AB0BDE8F14F01F0ADBB801C491C09B2DFF7BEBF02F00EFB70BD0000BDE8F04702F0A2BC02D0204678F71CB80E203070BDE8FC9F02F066FDBDE8F08395F748FC02F04DFF95F738BDBDE8704003F054B8F0BC03F005BA0000052D03D0002D01D08CF713BABDE8F08110B563F7FCBD000003F096FA10BD03F0D2FA10BD204603F095FE18B900212046E8F7FCB838BD23
:F930F900BDE83840030AFB00F7020D00F0FCBE000003F0CEFF70BD000000B54BF735FB04F00FF84BF73DBB0000014606F12C009FF7FDF93046BDE8704068F7F2BFB17801B404F012F8020001BC02EB0111C180014604F12C009FF7EAF92046BDE8704068F7DFBFB14201D171F773BB31208DF86C0071F773BB04F004F830BD00003946304604F046F804A93046CFF7E6BEF0BC04F04BB8000004F09EF870BD0000687040F23110B3F779BB607040F23110B3F76ABD02B40146300A26706070022902BC01D1E5F7D8B810220498E4F749FD0146201D9EF7C9FCE5F7DAB82178132007B4204669F7B7FC07BC904770BD07B484F86860204669F7AEFC07BC28
:F931F2009047BDE8F0810C2007B40AFB00EE030D00204669F7A5FC07BC90476D1C69F77FB8000002280DD153998F420ADA787800EB012087B2E88FB84203D1BC4201DBACF71FBAACF716BA0AA89EF765FC08B17DF7FBB804F00EFA7DF7F7B80BA805A904AA04F010FA7CF70CBF0000C4F34C10F02800D3F0206968A6F797BA05D00F2F03D00C2F08DCA8F7D7B920463946424604F0DDFCBDE8FF9FA8F7DAB940F23111ADF80210A8F75BB904F006FE30BD000005F0D2FDBDE8F08705F003FF10BD0000B8F1080F06D0B8F1220F03D000224146DDF7CEBCDDF7CFBC06F0A6BF3146204607F0CEFAB6F7BFBF01B40020D9F787FD01BC002408B985F717B915
:F932EB0085F726B9000040F20140A4F84000200AFB00E5040D0046C6F749BEBDE8FC4108F075B900009EF7B1FD2046297F08F07DFAE6F764BA08F06DFC10BD08F089FC10BDBDE8704008F00EBD08F0F8BD08F069BE0749087894F83A1060F3000184F83A10A1790022204694F74AF9DBF7C8BD0000506C210009F0C6F9BDE8F08709F05DFE05B0BDE8FF8F09F0D2FFBDE8F09FBDE870400AF0DBB80000BDE8F0410AF03ABB0AF0E3FFBDE8F0874FF480505BF7C9B820460CF035FBD0F771BA601C0AF0FFFA04F11C000446D0F79BB800000CF06CFBBDE8F0810CF0C5FC10BD00000CF013FDBBF70EBC0A98A072BBF78AF80546BBF70BBB00000CF082FDEC
:F933E400A87505F11704EFF706BA00000CF082FD0546E6F70AFB00DC050D00FFBA00000DF025FE70BD000029460DF0C0FEE98BE4F7BEB90DF0FBFEBDE8F05F9EF7FEBE07B50EF0DDF8BDE80740F0B587B0BEF72FBF000003480249801C00F00DBD000079030D006BBE080070B50446B0F80100CD78C0F3090200F47C40030A00200C2B67D0102B0BD1012A05D00C2A61D1204600F037FA5CE0204600F011FA58E0202B44D1162A1ED00ADCA2F10502092A50D2DFE802F030384F4F4F2C4F342800272A14D007DC202A19D0262A42D1204607F0FCF93DE02B2A0DD04E2A3AD1204602F051FA35E0204607F0F1F831E0204607F0B7F92DE0204607F0C3F918
:F934DD0029E0204607F00FF925E0204602F050F921E0204602F074F81D0AFB00D3060D00E0204602F056F819E0204602F0DBF815E0204601F0C9FF11E0FC2B10D140F22316A2F22313B24225D00ADC162A10D0E92A1AD0FA2A03D1204601F0D4F8012070BD312B09D0A62BFAD1204601F0BBF8F5E7204601F02CF9F1E7124A1278002AEED0204601F063F8E9E7022DE8D1204606F0A4FBE3E7032D03D1204606F047FB012094F83010022901D00129D8D1A57321780029D4D00121E17070BDAFF2471002490860704728372000381820000300084603D010F8011B917370477F21917370475048418821F02001418001210170418841F0100141804FF0AF
:F935D600FF3141604A49C16170474A4800684A490880704710B5032400B90024BFF70AFB00CA070D0057FC2046BDE810400CF0E8B970B54FF44814206800F00F0002F0C6F9FFF7E6FF3F48007810B94020C4F84C01FFF7CDFF3D4C3B48C4F89801AFF243003B4948603B491020087003F08FF907F070FC07F01DF803F0C6FB04F0B0FF35494FF43A7008803549344808603549F720087034480025056202F0BDFC3348C4F8F800324901200860324C0820E0703148057000F0A7FB0920207670BD70B52E4D2F4C3DF7D4FF08B13DF709FF2246002128469EF7C0FAAFF2A900294908602A49294808602A480321016000F0B4F80DF0ACFFFFF769FF03F09B
:F936CF0027FB2548264C0078C0F30210042803D124485AF7B7F92070207801280CD9204800781F0AFB00C1080D002808D11F48017841F001010170BDE870405AF7CABC70BD643520000DD70A00D8FC310022272000E9502100114D0D00C4AF2000601D2000491E200086372000ED370D009C1320000D1420002486200031130D008C20200008BD200042392000BC6D21003807000068512100787A21001C242000D41C2000E85021003F6B2100486B2100141A200030B4264C646814B1A44630BC60470188A1F51042053A26D18178132905D1817A332920D9332181721DE00B2909D1B0F80510B1F52A7F16D340F2A721A0F8051011E017290FD1164963
:F937C800097861B115490978022908D1154A1449C2F824120621C17013490020087030BC0120704738B50B4C0AFB00B8090D001D46049BA4681CB100932B46A04738BD002038BD054BDB6803B1184700207047024A126802B1104700207047D46A21005C1120005E1120003FE00000C4AF2000EC1B2000F0B511490F4848610020104E012756F83040620951F8223004F01F0407FA04F52B4341F8223006EBC00252684B6942F0010203EB40035242401C1A800728E6D3F0BD0000BC6D210084AF2000E46A21002149092009780A0612D408204A060FD407208A060CD40620CA0609D405208A0706D404204A0703D40320C90700D10220704770B505469A
:F938C10000F10804FFF7E1FF134EA071708BA4F8070095F7E2F9607240F231106081308BA0810820E87070BDF82100F81D0AFB00AF0A0D001F0021C171017241720421817208210173704701228273054A0221D27BC273C170704700000D14200024862000408720002DE9F34F4FF0000989B0CA464F46C846FF4D4C46A5F1540005F15006039099F713F9049099F713F9A5F1A40B9BF9DF020590049899F70EF900208BF8530201208BF8F300DFF8CCC305989CF912108142F14806DA81798BF8D11258469CF8141005E0C1798BF8D1129CF81510584680F8D01200202A5C315C174488441144A14200D90C46401C4F28F4D3E248807AA04202D9002048
:F939BA008BF8F300FF220A2106A8CDF710FF4F2106A8C3F719FE00218BF8E3118BF893110C464FF0000B2CB9287869784718307871780AFB00A60B0D000AE04E2C0AD195F84D0095F84E10471896F84D0096F84E10084410E0601E4C280ED8281910F8011C2A5D407811440F18301910F8011C325D4078114408448046DFF808E3C24AAEF1A40E0EEB040090F854C207EB0801527A6144914218D39EF8D1120A46C2F1FF02794302FB08F2914207D3B649097E8C450AD9295D325D891806D19EF893114FF0010B491C8EF8931190F8440160B12146AF48C3F72FFD38B1AA49A43991F8E301401C81F8E30102E0BBF1000F03D0214606A8C3F7ACFD641CEE
:F93AB3004F2C95D303980A2206A91E309EF7FDFE9F4D2888000529D500240127696807FA04F001421FD0984EA43ED6F8C812014219D0994830F8140AFB009D0C0D001010F81400C1F3C512C0F306016846C3F742FDDDE909026946C3F72BFD10F0FF0086F8530203D001200BB0BDE8F08F641C202CD7D303980A22283009999EF7C9FE0026344684484168012000FA04F001424AD07F49A439D1F8C812014244D1804800EB44056B78190626D510F8141030F81400C3F34115784BC0F3C51042082B441B7AC1F306015D088F18A0EB020BA3EB050806A80297C3F72FFD07465A4606A80299C3F729FDAF421ED340451CD301263844504518D915E030F8DA
:F93BAC00141010F81400C1F3C512C0F3060106A8C3F715FD6978624AC1F341111144097A814204D80126824501D28246A146641C202CAAD38EB35C4E36F819000AFB00940D0D00C0F3C51216F81900C0F306016846C3F7C7FC524D0124A43DD5F8C81204FA09F00143C5F8C812DDE909026946C3F7A6FC85F8530216F8190036F819204949C0F30600C2F3C5120979024403E02B1883F89411401C8242F9D885F8F34017E0FFE7DDE9090206A9C3F765FC3C4D3D4EA43D85F853020024214606A8C3F751FC18B13079291981F89401641C4F2CF3D303980A22323009999EF721FE49E72DE9F0473548334DDFF8B480324E0068002405F11C09A8F15408E1
:F93CA50020B9304800784000C3F77EFE0522294630469EF708FE0025705D99F7A3FC6D1C0444052DF8D3284890F83B00000718D51E480088400514D4254F0025387884420F0AFB008B0E0D00D028460DF0CBFC01464046C3F70DFC20B129463046C3F78CFC641E6D1C252DECD30522314648469DF71FFF144C113C48B10522314648469EF7D5FDA07D20F00100A07504E01248008808B1A8F787F9A07DC00705D1A8F79CF9A17D60F30001A175012017E088DF20003C21200014222000942020005C212000E4BC200055DE2000441220001C6B21004087200090202000EE372000BDE8F0872DE9F041254E0024DFF894800522254930469EF79BFD0025E0
:F93D9E00705D99F736FC6D1C0444052DF8D3204D286820B91F4800784000C3F7FCFD2868E8B11D4890F83B00000718D51B480088400514D41A4F0025387884420FD028460DF054FC01460AFB00820F0D004046C3F796FB20B129463046C3F715FC641E6D1C252DECD33146BDE8F041094805221C309EF763BDAFF2CB410C48C0F80C11AFF28711C0F814117047000055DE200034DF2000E4BC2000441220001C6B2100408720003C21200090202000C4AF200008B5009B421A23F4784303F5704323F0404343F08053121F03F100430093884202D843F4806001E023F48060C0F38021C1F1010161F3DB60C0F3C06161F35D70C2F3093161F30900C2F358
:F93E97004A0161F31A40009008BD38B5124C02462068802800D1FEE721F0010022F001052946FFF7C8FF00906946284622685AF7ACFC2068401C206038BD13B5064C01A92268802A00D1FEE75AF79F0AFB0079100D00FC2068401C20601CBD0000206B21002DE9F043002405460E46224FA04627E0641C71084FEA3500401971414B084FEA30024FEA121040EA0370801843EB13114FEA102545EA0165281841EB11214FEA104545EA0145281841EB11414FEAD00040EA41704FEAD101451C64B241F100063A68521B78EB0603D2D30A3C4FFA84F9002401E0641C64B257F82420A81A76EB0801F7D309EB8900C4EB400040B2BDE8F08300002C74260066
:F93F90009EF755BA9EF7BFBA9EF79BBA08B5ADF80000ADF80210012168469EF7D1F908BD9EF71EBA41898089081A70471548C06FC0B2704730B5134C0023226F28B10925B1FBF5F1E46FA14216D2052030BD03EB0AFB0070110D00C30192F822404454148C0144A1F801409489A1F80340D489A1F805405489A1F807405B1C5269DBB2002AE8D1002030BD98F767BECC6420002DE9F04198F7BCFD074698F7BCFD3748BAF73AF9002863D0354C208820B93548BAF732F900285BD000F0A0F8002857D13148BAF729F9002852D03048007801284ED82F48BAF720F950B12A48BAF71CF930B12C48BAF718F910B14AF720FE3FE020884FF6FF7548B190F7E6
:F940890002F830B10168A94203D2A1B34AF771FD31E02148BAF703F968B31E480068001F00F11804807B99F76AF84108206898F7ECFF401E6FF07C41194E4FF44614884219D205E0A84203D1D4F88400BE2809D399F760FC010AFB0067120D004630888142F3D1D4F88410BE29EFD83088A84202D199F753FC308000204AF7C1FB3846BDE8F04198F751BD000008132000A00F20006C0F200010132000CC1A2000F812200000132000B01920000EB50A486A460C21006859F7EFFE0C280AD106490822091D68469DF711FD002802D10349029808600EBDE9E7246B2100F450210038B500200E4C451E20602346012229460C48009543F720FB0023012233
:F94182002946094895F779FB21680843206038BD10B54FF76BF903490968084300D0012010BD0000306B2100D897200070B5FB490A78022A01D2002070BDFA49F84B0978062A194413D20278C2F3C3020E2A01D3052204E00A2A01D303220AFB005E130D0000E0012291F8A4301A44FE2A2DD281F8A4202AE00B2A07D291F8F420FE2A24D2521C81F8F42020E0E94BE94C1B680C2A10D1E84D2A7842B191F85422FE2A04D2521C81F854220021297073B12168491C21600AE091F8F420FE2A02D2521C81F8F42013B16168491C6160DB49096831B1096821B10078C0F3C300AFF76BFA012070BD2DE9F041D548016840684FF0080095F770F9D34CD34FC8
:F9427B0094F8AC1800F0FF083A7AC1F3C301D4F8A008914225D1B4F8AE18FA88C1F3C90191421ED1D204C44E150CB268001D521CB26072692A44726145F789FE0004000C09D03169491C3161F1690144F161B169281A084404E0F068401CF060B069280AFB0055140D0044B0614AF789FB404698F757FF05464AF7B4FA3968681A80B24FF47A7148434FF44861B0FBF1F086B2D4F8A00894F7BFFAB888B04210D82321FF204AF704FF06000AD00720B0702022A449F01C9EF7E5FA30464AF76AFE3D60002084F87208BDE8F08108B5012903D1BDE80840C7F724BD0521009104F012FF6B46012200214FF654504BF7C1F908BD2DE9F04781460C4600252F
:F9437400012692F769FE08B9072562E0944960790978884200D808B912255AE0C7F75DFD07469048006840040BD53846C7F771FD38B1207918B900213846C7F784FD0C250026F87A012801D0042807D104F0F7FE20B12079012801D10C253AE08EB33846C7F75BFD0AFB004C150D0021798842F6D03846C7F753FD0028F1D1384603F0CDFD012803D17A4800680028E8D16079C8F797FD064621793846C7F7E1FC3846C7F73FFD4FF0FF08012826D13846C7F73AFD58B1012092F773FF7064FF2807D100213846C7F7CCFC0D2506E0C6F844801DB921793846FFF77FFF002189F8301015B9207900280CD0E31C2946BDE8F04701224FF654504BF742B95B
:F9446D00706C92F7F2FFE4E7BDE8F08770B505460C4692F7E8FD08B9072006E05449A07A0978884200D810B91220287070BD98F78EFB054698F78EFBA07AC7F7D5FC0646A07A211D04F0A8FE0121304604F0A2FE2846BDE8704098F780BB70B505460C4692F7C1FD10B90720280AFB0043160D007070BD404994F824000A781221904203D810B120791F2801D9297070BD98F762FB054698F762FB94F8240005F0A6FE2179C177227912B1611D9EF7F8F92846BDE8704098F755BB70B505460C4692F796FD10B90720287070BD2A4994F824000A781221904203D810B120791F2801D9297070BD98F737FB054698F737FB94F8240005F06AFE2179C1775A
:F9456600227912B1611D9EF7CDF92846BDE8704098F72ABB2DE9F04105460C4692F76AFD08B9072013E01549607E09781226884200D808B92E70D7E6C7F75DFC0746C7F77AFC18B93846C7F774FCE8B10C202870CAE60000C2142000E4DE2000BE13200094182000D8AC2000BC13200030180AFB003A170D002000288B310000102000CFAC2000491E2000F0372000307F2000A0882028D2D3E188B1F5804FCED88842CCD8E07D4007C9D094F91A0010F1150FC4DB0928C2DC98F7D5FA054698F7D5FA217A3846C7F749FC617A384604F0EDFD607A18B1607E04F10A0104E0002092F76EFF0146607E04F0E2FDE17D3846C7F736FCA08820F0010138465C
:F9465F00C7F732FCE08820F001013846C7F72EFC207A012801D004280AD1217C384604F0D2FD04F11101384604F0CFFD002100E0217E3846C7F720FC2846BDE8F04198F79ABA70B5044600F10806C8780D46062818D2DFE800F01703070B0F132046FFF760FF11E02046FFF731FF0DE02046FFF702FF090AFB0031180D00E02046FFF7D7FE05E02046FFF74FFE01E012202070E878B0710120E07070BD70B505460721FF204AF720FD04001AD05520A07000202071284692F796FD68B1808DA4F805002846C7F764FB30B1807CE0702046BDE870404AF77ABC2046BDE8704094F745B870BD70B5044600F108050020207091F90420C878114602F05AFCC6
:F9475800A8710120E07070BD30B43648012303703548364A0088C0F302101060C8783449D0B13448006898B1087888B93248354C026832480280324A12882280324A12688280324A147884715478C471927802720B7030BC9FF70FBB002008702C49087030BCC2F742B910B50024601C94F710F950B1C069C10207D50AFB0028190D00010403D5C0F3C400022801D3012010BD641C0B2CEDDB002010BD70B51F4D0446B5F86400A04201D1002070BDFFF7DFFF08B10C2070BDB4FA84F0C0F1200194FAA4F0B0FA80F0401C072801D2122070BDA5F86440E973A873E6E710B50446B1F80300FFF7DAFF207010BD00006F182000BC162000B81620004D1781
:F94851002000B416200004172000ACA52000D81620005817200008172000E0162000D1162000408720002DE9F14F86B006980699B0F9080004900698D1F89010B0F906B0D0F8840000EB810002900698D0F87CA0D0F8800001900020F4E300FB0BF0C7000020E9E306980399D0F890400398A03444430744069800EB8103D3F8880AFB001F1A0D00101031C3F888100698D0F89000814202DCD3F888004EE0029901EB840101F51F72A1EB800101F50F71082051F8045942F8045951F8045942F8045951F8045942F8045951F8045942F8045951F8045942F8045951F8045942F8045951F8045942F8045951F8045942F8045951F8045942F8045951F8F9
:F9494A00045942F8045951F8045942F8045951F8045942F8045951F8045942F8045951F8045942F8045951F8045942F8045951F8045942F80459401EBDD50020C3F888000299201A01EB800421460198EBF7F3FD206ED4F860120844C517FF4A0021A0FB026305FB023200FB012CD4F88000D4F80022801AF94AC517A0FB026305FB023200FB0AFB00161B0D0001208444D4F8E000D4F8E0211044F34AC517A0FB026305FB023200FB01208444D4F80001D4F88021801AED4AC317A0FB026503FB025200FB01208444D4F86001E94AC517A0FB026305FB023200FB012060448012404200F30F000AEB470210806268E1484FEAE275A2FB006305FB0033BB
:F94A430002FB013CD4F87C22A2FB00654FEAE27303FB005002FB0108626ED8484FEAE275A2FB006305FB003302FB013202EB0C09D4F81C22A2FB00654FEAE27303FB005002FB010000EB080CD4F88420CD484FEAE275A2FB006305FB003302FB013202EB0908D4F8FC21DFF820E3A2FB00654FEAE27303FB005002FB01008444D4F8E420C1484FEAE275A20AFB000D1C0D00FB006305FB003302FB01329044D4F89C21A2FB00654FEAE27303FB005002FB01008444D4F80401A0FB0E654FEAE07303FB0E5200FB012000EB0809D4F87C01A0FB0E634FEAE07505FB0E3200FB012000EB0C08D4F86401AB4A4FEAE075A0FB026305FB023300FB013000EB24
:F94B3C00090CD4F81C01A0FB02634FEAE07505FB023200FB0120D4F88421A14D404482FB05329444D4F8FC2082FB053202EB0008D4F8E4019B4A4FEAE075A0FB026305FB023300FB01308444D4F89C00A0FB02654FEAE07303FB025200FB0120D4F80422914D404482FB05329444E26F82FB053202EB0008D4F864028C4A4FEAE075A0FB026305FB023300FB013084440AFB00041D0D00E069A0FB02654FEAE07303FB025200FB01204FEAAC22C2F10002404402F30F0307EB0B050AEB45024FEAA0201380C0F1000000F30F02CBEBCB0000EB07030AEB43000280A068774A4FEAE075A0FB026305FB023300FB0138D4F87802A0FB02634FEAE07505FB58
:F94C3500023200FB012CA26E6E484FEAE275A2FB006305FB003302FB01329044D4F81822A2FB00654FEAE27303FB005002FB01008444D4F8882063484FEAE273A2FB006503FB005302FB01329044D4F8F821A2FB00654FEAE27303FB005002FB01008444D4F8E82059484FEAE275A2FB006305FB003302FB01329044D4F89821A2FB00654FEAE27303FB005002FB01008444D4F8080AFB00FB1D0D00214E484FEAE275A2FB006305FB003302FB013202EB0809D4F87821A2FB00654FEAE27303FB005002FB010000EB0C08D4F86801434A4FEAE075A0FB026305FB023300FB013000EB090CD4F81801A0FB02634FEAE07505FB023200FB0120D4F8882132
:F94D2E00384D404482FB05329444D4F8F82082FB053202EB0008D4F8E801334A4FEAE075A0FB026305FB023300FB01308444D4F89800A0FB02654FEAE07303FB025200FB0120D4F80822294D404482FB05329444A26F82FB053202EB0008D4F86802244A4FEAE075A0FB026305FB023300FB01308444A069A0FB02634FEAE07505FB023200FB01204FEAAC224044C2F1000231E06AEC410048730AFB00F21E0D00B900EFECA7017A30B408756CCF127321050048EF4400961B0701BA3E22019A3E9F0A6F229C12912831F924F4F50193678DFFE7723A00713F0B00755B4100CAB35601FFD05F00B6597D0CFA350412FC95FFFA538613020EF1C9FFF46090
:F94E2700300007EB4B0302F30F020AEB43034FEAA0201A80C0F1000000F30F020BEB4B00864607EB40030AEB43000280E0684FEAE073FF4AA0FB026503FB025300FB0138D4F87402A0FB02634FEAE07505FB023200FB012CE26EF7484FEAE275A2FB006305FB003302FB013202EB0809D4F81422A2FB00654FEAE27303FB005002FB010000EB0C08D4F88C00EC4A4FEAE075A0FB026305FB023300FB0130000AFB00E91F0D00EB090CD4F8F401A0FB02634FEAE07505FB023200FB0120D4F8EC20E14D404482FB05329444D4F8942182FB053202EB0008D4F80C01DC4A4FEAE075A0FB026305FB023300FB01308444D4F87401A0FB02654FEAE07303FB75
:F94F2000025200FB01208044D4F86C01D14A4FEAE075A0FB026305FB023300FB01308444D4F81401DFF83C93A0FB02634FEAE07505FB023200FB0120D4F88C21C64D404482FB05329444D4F8F42082FB053202EB0008D4F8EC01C14A4FEAE075A0FB026305FB023300FB01308444D4F89400A0FB02654FEAE07303FB025200FB0120D4F80C32B74A404483FB02539C44636F83FB023202EB0008D4F86C02A0FB09654FEA0AFB00E0200D00E07303FB095200FB012084446069A0FB09634FEAE07505FB093200FB01204FEAAC224044C2F100020EEB070302F30F020AEB43034FEAA0201A80C0F1000000F30F020BEB8B0038440AEB400002802069D4F895
:F9501900702210449C4A4FEAE073A0FB026503FB025200FB012C206FD4F810221044964A4FEAE075A0FB026305FB023200FB01208444D4F89000D4F8F0211044904A4FEAE075A0FB026305FB023200FB012000EB0C02D4F8F000D4F890311844894B80FB033000EB0203D4F81001D4F870211044854A4FEAE074A0FB026504FB025200FB012018444FEAA020C0F1000000F30F0107EB8B020AEB42000180019800F1200001900398000AFB00D7210D00F1010003905845FFF612AC0598401C049905908842FFF606AC07B0BDE8F08F2DE9F14F86B006980699B0F906B0B0F9080004900698D1F89010D0F8840000EB810003900698C06F02900698D0F8C3
:F951120080000190002005E200FB0BF087000020FAE10698574400EB8A03D3F88810D0F890400831C3F888100698A034D0F8900004FB0AF4814202DCD3F888002EE0039901EB840202F59E71A2EB800202F58E72082052F8045941F8045952F8045941F8045952F8045941F8045952F8045941F8045952F8045941F8045952F8045941F8045952F8045941F8045952F8045941F80459401EDDD50020C3F888000399201A01EB800421460198EBF70AFB00CE220D00A4F9206BD4F83011394A0144A1FB0263CD1705FB0232002001FB002C216CD4F80021891A334ACD17A1FB026305FB023201FB00218C44216FD4F8F0200A442D49D517A2FB016305FB31
:F9520B00013102FB00118C44D4F88010D4F8C0208A1A2749D517A2FB016305FB013102FB00118C44D4F8B010234ACD17A1FB026305FB023201FB00216144C912494201F30F02029901EB47010A8061681B4A4FEAE175A1FB026305FB023301FB003CD4F83C114FEAE1732AE000007D2C1200B6F834008BB3A10173EB5EFF6FB13B0EF0CE0E117E6EA8FC1F2909021324FAFF625A250089FF1A00D28F1D004C22E0015D4320FEF921C70FC8BC7D00459F65012C0AFB00C5230D00EE4F03D21E5B11F21FAC25E6941100A1FB026503FB025201FB0029616B984A4FEAE175A1FB026305FB023301FB003101EB0C08D4F80C11DFF850E2A1FB02654FEAE17369
:F953040003FB025201FB002101EB090C616C8C4A4FEAE175A1FB026305FB023301FB00318844D4F8FC10A1FB02654FEAE17303FB025201FB00218C44616F824A4FEAE175A1FB026305FB023301FB00318844D4F8CC10A1FB02654FEAE17303FB025201FB00218C44D4F88410A1FB0E654FEAE17303FB0E5201FB0022D4F8BC1002EB0809A1FB0E654FEAE17303FB0E5201FB002101EB0C08D4F8B4106C4A4FEAE175A1FB026305FB023301FB003101EB090CD4F88C10A1FB0AFB00BC240D0002634FEAE17505FB023201FB0021D4F8C430624A414483FB02539C44E36F83FB023202EB0108D4F8F4105D4A4FEAE175A1FB026305FB023301FB00318C44F7
:F953FD00E16CA1FB02634FEAE17505FB023201FB0021D4F80431534A414483FB02539C44E36B83FB023202EB0108D4F834114E4A4FEAE175A1FB026305FB023301FB00318C44E168A1FB02654FEAE17303FB025201FB00214FEAEC22029D4144C2F1000207EB0B0302F30F0205EB43034FEAE1211A80C1F1000101F30F020BEB4B0101EB0703029901EB43010A80A168D4F838211144364A4FEAE173A1FB026503FB025201FB002CA16BD4F808211144314A4FEAE175A1FB026305FB020AFB00B3250D003201FB00218C44A26CD4F8F81011442B4A4FEAE175A1FB026305FB023201FB002101EB0C02A16FD4F8C8301944244B81FB033101EB0203D4F887
:F954F6008810D4F8B8201144204A4FEAE174A1FB026504FB025201FB002018444FEAE020C0F1000000F30F01029807EB4B0200EB42000180019800F1100001900AF1010082465845FFF601AE0598401C049905908842FFF6F5ADD5E5E4887F00A3BA9D02BCF2C800905CF51851F2122437AF0FF640EE1E04D5B99BFF03945900D3E230009B233D004133B203D4914FFC46CA911F70B506460C46CCF7B5FE18B9FF4D2868007C10B10C20307070BDB4F803001222202819D3B4F80510B1F5804F14D80AFB00AA260D00884212D8207C40070FD0F549E0790978884203D0F4490978884208D1F349087818B1487818B1022801D0327070BD97F726FB06464B
:F955EF0097F726FB2B68E079D872207A1873217C5973B4F8031021F001011980B4F8051021F001015980E27904F10A01012A01D0042A07D1607A98720622181D9DF7A9F900200AE0022801D0032805D1607A98720622181D9DF79DF9607C296888733046BDE8704097F7F7BA10B5D34800680078B0B9CCF74EFE012806D1CB480068007B01280DD003280BD0CD480068007948B10CF0BBF8012803D00CF0B7F8032801D1002010BD012010BD70B505460C46FFF7DBFF10B90C20287070BD97F7C6FA054697F7C60AFB00A1270D00FA0622E11CBE489DF762F9284697F7C1FABDE87040C6F748BB2DE9F0470D46DFF8C4828246B749D8F80000002409684D
:F956E800067B4904274605D5417C19B1E97839BB477425E0CCF704FEE978884220D0D8F800104246087CD8B990460A1D887A1146D9F793F9A649012E05D1086838B9888828B912242BE0032E01D10028F5D0D8F800004246C17A012904D19F49096809B10C241CE0E9789146C173CCF7D9FD9B4E4FF0FF08012821D1C6F7AFFB50B1012091F716FE7064FF2806D1D9F800000D24C77304E0C6F84480E878C5F75AF88AF8307014B9E87800280CD02146BDE8F04700231A4642F20A0049F7E9BF706C91F799FEE7E7BDE8F0870AFB0098280D002DE9F0417F4F054638680C460079C978012688425BD00CF01BF8032803D00CF017F8012808D1784801680A
:F957E10029B9808818B912202870BDE8F081E07801281AD1207901280AD174480078012802D1C6F7DBFA01E0C5F732F8060006D0C5F7C6F810B96E48007800B92EB9C4F7A7FBC4F77EFB0720DEE73868E17801712179C171E078C5F715F8E078C8B9C4F797FBC4F76EFB63488068800702D592F7CEF902E0012092F7BFF82088C0F309000C2806D100231A46194642F20C0049F785FF28780028B8D1E0780028B5D185F83000B2E70C20AFE72DE9F34F83B0049C0125E17B06462846022902D0032900D000208146207A04F1090100F0010AFB008F290D000020720291D9F7C9F8DFF8FCB0074686F83050DBF80000AA4601784FF00C0839B93C4944F203
:F958DA0010020968114203D0C07808B1404636E0B4F80510B4F80300B4F740FC122590B3638B228BCDE90023E38AA28A618A208AB4F7C8FC38B38BF72CF808B90D201EE0B9F1000F03D0D8F7D3FF0028DED0E07B2649012804D1086850B9888840B913E0032805D1E07950EA07020DD00128F2D0002091F72BFD8046FF2807D10920307005B0BDE8F08FFFE73570F9E7E8F7D5FA404691F7A8FC0546E07910B9C5F85C7102E00020C5F85C0197F764F9074697F764F9628B218B2846B4F7CCFCB9F1000F01D1E07918BB207A85F85200062205F14C000AFB00862A0D0019E02C3720000C3920000D392000EC3820003437200030372000641E2000F03737
:F959D3002000307F2000381B210003372000203720001886200002999CF7D7FFE07B85F85300208AA5F84400608AA5F84600A08A2881E08A68812846C7F7FEFB384697F726F92A4630460499B4F7B1FC00289ED1E079012803D14046B4F709FD30703078002894D1DBF8000080F800A080F80180B4F8050020F001010E4800680180B4F8031021F001014180E179817100210846D4F77CFC97F7E4FB0749086077E710B504468A7AC878091D06F0A9FC207010BD000038372000CC3720004FF44813196821F477610143196097F7E1B870B506464FF448100068500AFB007D2B0D004D00F477640020A86330469FF770F9AFF21D00A863052E13D2DFE829
:F95ACC0006F00306090C0F004FF400600CE04FF4116009E04FF4226006E04FF4336003E04FF4446000E02046A04201D0FFF7CCFF012070BD2DE9FE4F8146DDF830A097F7A7F8009097F7A7F84FF0FF35280AB9F1050F63D2DFE809F003060A0E1200064639270EE06FF47F0631270AE06FF47F46292706E06FF0FF06212702E02E4605461927DFF8A8803A46D8F804100291D8F800000190EBF7F0F8C4B24FF0000BBAF1000F23D04FF44810006800F00F01494502D948469FF74CF9FF2C01D2641CE4B24046C246D8F80080D0F8049008EA050809EA0609204659463A46B8F70AFB00742C0D0090FB40EA080041EA0901CAE9000117E00CB1641EE4B242
:F95BC500C246DDE9018908EA050809EA0609204659463A46B8F77AFB40EA080041EA0901CAE900010CB99FF71FF90098BDE8FE4F97F73BB80000C4AF2000001B20002DE9F0414FF000040600884617462546204628D00FB91E4809E01E48007808B11D4804E03FF7A8FB4FF47A71484386420FD0B0FBF6F404F001006D1C6408FF2CF9D8072D00D814B90725FF2401E000B9641E44EA05210FB9002001E04FF40040014341F480504FF44D118A6BB8F1000F05D149F2FF739A4302438A6304E0074B1A4042EA00408863BDE8F04159F750BD40420F004445200000366E01FFFF00680149400AFB006B2D0D0020086070474C0132003649F0200870704733
:F95CBE000A210A2800D301463248017070473148007870472DE9F04104460D4616463BF7F3FB10B10220BDE8F0813BF7E7FB07463BF7FAFC3246294620465CF7F5F9044638465CF725F90120012CECD10020EAE72DE9F04104460D4616463BF7D5FB08B10220E0E73BF7CAFB07463BF7DDFC3246294620465CF7E1F9044638465CF708F90120012CCFD10020CDE72DE9FC4704460E4617469846DDF828903BF7B5FB10B10220BDE8FC873BF7A9FB05463BF7BCFC0123CDE9009343463A46314620465CF776F9044628465CF7E3F80120012CE8D10020E6E7941E200010B5094A52F82030198052F820100AFB00622E0D0000230B80401C0321B0FBF1F45F
:F95DB70001FB140052F82000038010BD0000302B26002DE9F0410C461546B0F58A7F54D901264FF0020804F10807B0F58B7F1CD0A0F5807017382FD0042846D1E878A0B3012842D004283DD1C7210E2049F7EFF958B30021417186702A88A0F80320EA78827184F83010194A20E00721384693F744FD95F9030000F049FBB871C0F30720E670012801D11F2002E0022801D13020207084F8308015E00721384693F72DFD00F0B2FBB871E670F3E70EE032F8113000EB4104491C09B2A4F807306029F5DB49F727F90120BDE8F0810020FBE7A42B20002DE9F04756F7FAFA3C480068400702D53C493B480860DFF8F00AFB00592F0D00904FF4C806D9F869
:F95EB0000000741020B139480068C6F8840006E0D4F81C04800702D435480068F065354D286820B1406880472868C068804796F7CBFE824696F7CBFE4FF40011A046C4F8C0102D4F386800B180472C48007800F00300022802D197F715FD11E0284C206820F440702060206840F42070206097F70EFD206820F460702060786800B180470024F465286810B1D8F8C01041611D4800231A462021006857F7E3FD1A4800780028FDD1504696F795FE286860B1806880472868006980472868C068804728680069804728680476D9F80000002803D0BDE8F04756F764BABDE8F0873C1A20000501060020153200841A20008C1A20000AFB0050300D00A41A81
:F95FA9002000401A2000346B2100E85021004861330098512100221A20002DE9FC414FF448161D4FF56A4FF0FF346FF0004120466DF7A3FD214620466DF79FFD4FF4001000210246CDE9000115480260019A42601448017056F71DF8306DC0070FD000E02546F46AAC42FBD1022C02D80E48007810B140F20521B162306DC007FCD13A68442109A068F77CFA0B48094901600A49416065F70EFFFEE70000DC50210000E100E0251A2000480F200077646F672E630000ADDEDDBA7C5121005AF001A51349092009780A0612D408204A060FD407208A060CD40620CA0609D405208A0706D404204A0703D40320C90700D10220704708480721810AFB004719
:F960A200310D007307490A7801219140491E4FF6C0721140A0F86410704700000D142000408720000F14200010B50C4602281AD0142803D0152805D0162808D1204692F7CDFB09E02046BDE810405CF74FBB08490A6832B1214690472046BDE8104009F008BD0449C9792046BDE8104092F728BCD4172000181E200098499748086070472DE9F041964F0446466A97F83C0000287ED19448E38B0178032230468BF7C8FE0121204690F763F8051E4FF0010859DD022D04DB204681F76AFA002871D1E08B801FA8421EDD3868A0420BD096F8030110B1401E86F80301681C4110204681F7D2F93FE0681CE17B401021B1B16E11B194F8441099B3A18D8136
:F9619B00420AFB003E320D0033D8E18D29B9A2891AB920468FF78BFD2BE0764A1278904227D319B194F85100904222D3606A90F8A00092F76AFC94F8441031B190F8F720920705D4C069000402D5A07C712810D0E08D94F85120401C824227D239B16649E08B0978884202D9282001E001E04120A07494F84C0000281AD0801E10F0FF0084F84C0014D1E07B012805D0217D40460D2901D100280BD105232A4600E007E02046BDE8F041022181F74BB90D20DFE7BDE8F08170B5456A04462868C1692846884794F8470028B194F84A00A074002084F84700217D01200D2900D1C0B9E07B68B995F8030198B195F8FF1001290FD195F8F91061B9401E8516
:F9629400F8030108E0020AFB0035330D002120468FF7BBFF401C4110204681F742F9606A90F8A00092F7F8FB10F8F71F41F00201017070BD70B50446456A81F7B6F9002852D184F8440095F8001121B194F84810491C84F8481095F89A1021B194F84910491C84F8491005F8FF0F84F84500E18D297184F84C00E17B012611B984F84B0001E084F84B6084F84000606A90F8A00092F7C2FB054690F8F70020F0020185F8F710606AC16EA06996F724FF94F8421079B195F8C61095F8C720914200D81146B5F8B2205143884201D2002001E0891A401AB5F8B210B0FBF1F00C490988884203D2606A80F88A6070BD616A022081F88A0070BD7CE90D0064A7
:F9638D001320009C7E2000591320000AFB002C340D0058132000511320005E1320002DE9F04104460D4616463EF7F9FF354945F2226209684AF644438F0742F611311ED59C4203D08C4201D094420DD140F2B9112960B3FBF4F14143484200EB800000F1806000F2B91040E04FF47A61B4FBF1F14FF08062A2EBD0002960084435E0A0F51247183F34D10020B4F5FA5F26D0B4F57A5F01D1012021E0B4F5FA4F01D102201CE09C4201D1032018E0A4F53B43803B01D1042012E08C4201D105200EE0A4F53851E03901D1062008E0A4F5BA41C03901D1072002E0944200D108200A4951F820102960094951F820003060BDE8F08161002960064948430015
:F9648600EB440000F18060F3E7D41C2000447F260AFB0023350D0000687F260018FCFFFF5548406800B10047544A107801281DD1534954480B7803604B7843608B788360CB78C3600B790361497981624E490B78C3624B7803638B784363CB7883630B79C363497941654FF00000107070472DE9FE4F044640480169002029B1204688470190BDF804006EE0404E8DF80900002C61D014F1110F5EDD112C5CDA3E49DFF8F0C03C4F91F9003031469CF800203878DFF8E890DFF8E8A0DFF8E88009784FF0010B1D1BA2B904EB840242F35D02104499F80020904203DB9AF80020904200DD10463970307088F800508CF800B026E098F90020954222D04F6B
:F9657F00F47A7C03FB0CF3009305FB0CF302FB0CF256F7F4FE0AFB001A360D003178C0B2884204D1002C01DD401C00E0401E99F80020904203DB9AF80020904202DD8DF809B003E03970307088F800501A4930780968086019490978012906D118490968086002E002208DF8090030788DF80800BDF80800BDE8FE8F0348406900B100471048007870476802210095332000A833200088026000B03320009833200096332000973320009B332000993320009A3320009C332000A03320009D332000A4332000712D200030B40278C2F3C303427A092B05D04378C3F34004837D9C4203D042F00102427212E0114C4D0305D422F00102427208222270092D
:F9667800E042F00102427283F0010282750522227000220276084A12683A0AFB0011370D00B10278C2F3C302082A02D1054B01221A700222427130BCD0F7FFBCC2142000E08A3100D211200023494FF47A700880224801682248CA0736D001234FF4C802C2F88C30490709D51E49C0F82015D0F8101541F08061C0F810150FE01A4900F5A4600160816841F400218160816821F0FE0101F102018160A0F5A460D0F820051249086052F8840F1149096840EA5100106010680F49086000214FF44810C161C1690129FCD170470B49C0F8201541F23401C0F828157047281A20003C1A20000010320001010600D9033EFE881A2000A41A20008C1A2000C06C
:F967710003840170B504460D46D2F783FC29462046BDE870406EF7ABBE000070B5F8480AFB0008380D00F84C0078000615D5F74D2878C10611D540070FD4E07830B104F10C0000781F2801D1792000E0B92057F7AAF9287840F0080028702078002804D06078BDE8704097F716B870BD10B5E74C2078000713D5AB2057F795F9E348017819B1807897F707F805E000204FF4B461401C8842FCD3207820F00800207010BD10B5D9490320C97801290ED9D7490C310A781F2A09D14978432901D0442901D10F2002E0422900D10120D14C2178890711D58C2057F78DFA20780122C0F3830000217DF7B0FD2078BDE81040C0F3830000217DF7BDBDBDE810D7
:F9686A004057F7A0BA37B584B00C0015461FD0062057F74CF9DDF81100002300BA20F0FF0040F0120AFB00FF380D000002909DF81000009303900521601D012302AA57F742F901230093601D00232A46214657F73AF957F78FFA07B030BD2DE9F74F84B00E46154657F75EF9DFF8B4A2A94C9AF80000C00702D057F7E5FA0DE02078C00603D5502057F716F906E0062057F712F957F7A6F98007FBD52078410644D5800704988024B0FBF4F104FB1100C0F18007B74200D93746F01BB0FBF4F104FB110BDFF854928846D9F804002A4600280498394602D0FFF79AFF01E057F75AFA04983D4438444F4604900EE078682A4600280498214602D0FFF78938
:F9696300FF01E057F749FA0498254420440490B8F101008046ECD278682A4600280498594602D0FFF776FF32E00AFB00F6390D0057F736FA2FE002208DF80800002425E0062057F7BEF89DF812008DF809009DF811008DF80A009DF810008DF80B0015F8010B8DF80C000498401C049057F73FF98007FBD50123052102AA0846009357F7A9F857F734F9C007FBD1641CB442D7D3042057F796F89AF80000C00701D057F73DFA57F727FA304607B0BDE8F08F2DE9F74783B00C4690468A4657F7BAF85848DFF8649100788006D9F8040006D510B106260C2742E005260B273FE010B1052613273BE00426032738E0C6F1FE00A04201D9254600E0054601AC
:F96A5C00A98DF804705520314401F8010CD9F8040080B19DF80F008DF805009DF80E008DF806009DF80D008DF807009DF80C0AFB00ED3A0D00008DF808000BE09DF80E008DF805009DF80D008DF806009DF80C008DF8070043462A4601A9304657F74DF80398A8442844641B0390002CC4D157F7C8F9504606B0BDE8F087AFF2BF0030490860AFF20D202F49086070472DE9F341294F84B038780D46C00703D157F72AF900287ED057F74CF8DFF8908098F80000C00701D057F7D4F9062057F709F879780A2907D10498204900BA20F0FF0091F8C21048E017481C4E8268BAB3B5F5802F66D84068D0B1DC208DF808009DF813008DF809009DF812008DEB
:F96B5500F80A009DF811008DF80B009DF810008DF80C000123052102AA0846009356F7E4FF50E0049801EBC10100BA06EB410120F0FF000AFB00E43B0D00497B1AE0EB5021003C6B210000512100141A20009C512100181A2000BC662600FFE7B5F5805F0CD8049801EBC10106EB410100BA097B20F0FF00084356F7B8FF27E04FF4004085421AD2002415E07978049801EBC101204406EB410100BA097B20F0FF00084356F7A3FF04F5805457F72FF8C00700E01BE0F9D1AC42E7D308E08542B5D001EBC10006EB4000C07B56F789FF57F71DF8C007FBD198F80000C00701D057F72CF9042056F77CFF57F713F906B0BDE8F081000070B504461C4D9241
:F96C4E00F737F9A1686962E168A962218A2986618A6986C169C1F3C401E7F76EF8012070BD2DE9F04781460D4616461F461420DDF8208091F709FE040AFB00DB3C0D00000FD00622494620469BF7C4FEA560E6602782A4F812802146BDE8F047074857F713BEBDE8F08708B500231A4619460093FFF7DAFF08BD000098E420009D3C0D0010B5A7480078012811D1A64A1068A64920F47023096801F4702443EA0403136020F47F0001F47F0140EA0100106010BD00B5022A01D1FFF7E3FF002000BDF8B506469A480C4630F81100009069463046C1F712FF009804281FD0934D012C03D1B17C6B2906D101E0022C03D1296841F4800102E0296821F48091
:F96D47000121F0F85121F47C1100F03F0041EA00402860FFF7B8FF84482968016069684160F8BD73B5824C05462068C0F315002060606820F47C506060019803280AFB00D23D0D0003D101A9284672F7C7F82846019972F756F9FFF79AFF754821680160616841607CBD38B50022724C009222680546C2F30542052A35D06F4A32F8111000916946C1F7BFFE009804282BD195F8A000BCF7A1FF48B140780128206820F0005002D140F00050FFE720602846C1F7C3FE0F210F2800D80146206801F00F0120F0706040EA0160009920F47C1001F03F0140EA01402060FFF759FF5548216801606168416038BD10B5012072F7E9FA802096F7FAFC4F4C00E5
:F96E40002020605049606008604F49524A08704F4908704F490870012111704F4908604F49086088804E4908804E484249006800F0070008700121002072F78EFA72F794F9720AFB00C93E0D00F7C8F94FF4CA00026E47490A60426E4A602168C0F860116168C0F86411BDE8104072F70EBA4149012008724872AFF2AB103F49AFF2A512C8653E48C260AFF24F124261AFF21B1202613B4A0A67AFF2A101016070474FF4CA00026E32490A60406E486023480078012801D172F739BA704770B531480078002824D0264D25492868401C28600A78002422B1032802D10C70FFF7E0FF2A4928680978B0FBF1F201FB120000280ED11C4B03EB40014A78329F
:F96F3900B1521E12F0FF024A7001D103F81040401C0328F1D370BD1E480078012801D172F785BC70471B480078002801D072F716BD7047AFF21F0112488161AFF2190181627047692220000AFB00C03F0D0060016500C022200014412000942220003F37200074222000752220004C6B2100A0222000B02220002218200058222000B822200078412000C4AF2000D8222000CD420D0067222000712220004022200008B5052100915149096829B96A461721E6F7E8FA012008BD002008BD10B5B0B004460146202208A89AF78BFE202204F1200168469AF785FE082110A8D1F706FE082210A908A8D1F719FE002847DB404908220C4608A8D1F711FE0009
:F9703200283FDA082210A96846D1F70AFE002838DB082221466846D1F703FE002831DA0822694628A8D1F76EFE082208A920A8D1F769FE082308AA20A920A8D1F75AFE082308AA08A918A8D1F766FE080AFB00B7400D002308AA18A918A8D1F760FE2749082318AA243918A8D1F762FE082318AA20A918A8D1F753FE082218A928A8D1F7D3FD10B9012030B010BD0020FBE738B505460A2000900C462846EBF7ACFD28B16A4617212846E6F773FA38BD00216A1814F8010B491C82F867012029F7DB00216A1814F8010B491C82F887012029F7DBB5F8420040F04000A5F8420005F26710FFF772FF012802D00B200090D8E700212846E4F727FA38BD7C63
:F9712B006D2100A8A22000F0B54FF000025FEA000C154603D00F20454B102403E0444B0520283B142493F900608E422ADD03EB400696F900608E4201DB024622E0002011E003EB400696F900708F4201D102460BE00AFB00AE410D0006DD96F902608E4202DA0246012504E0401CC0B2A042EBD35DB103EB420090F9001090F90200084400EBD070401040B203E003EB420090F90000BCF1000F0AD0274901EB4201264A497811602649C87688764876F0BDDFF884E0234EAEF1280E0EEB420191F90010042901DD012100E000217170FF2131700821F170DFF860C0B17000210CF1200C02EB4103A5B10EEB430393F9004093F902703C4404EBD4746749
:F97224001006EB410427752771617561715C78DB7823445B0809E00EEB43073C7806EB41031C751C71597559717B785CF821402360491CB378C9B28B42D5D8F0BD786B21009C01600008BD2000FA2C200010B504461A480078020AFB00A5420D002810D172F707FD18481949407A085C08B1002102E0174890F83C102046BDE810409CF753BA10BD10B50F480078022817D1D1F715FE10480068000504D50F48016841F080410160D1F7E2FEC1F79EFBAFF7B1FF0A49002008600A490860012010BD002010BD000049152000507E2000B04F26009C7E200054152000B4803100681520006C1520001CB500214FF08060CDE9001005480160019941609ED2
:F9731D00F772FABDE81C4008219EF7B3BA000080E100E00448C089B0F5817F01D8002070470120704700002851200070B5044690F8A000BCF7F7FC00281DD094F89010002301221B4D02290ED0E17B012913D1194909780C290FD1417801290AFB009C430D000CD18178012909D1837015E04178002994F88C1005D1090601D4837070BD827070BDC1F3C30103290CD281780129EBD0032901D1022181700078824028689043286070BD8270E16E416000788240286802432A6070BD000038132000C2142000012805D1002903D10249002081F8180270470000085620002DE9F041024612F8015B11785378244C01EB0321234E8BB2921C60690021967B
:F9741600F8A96039E090F83A70A7B307889F4231D145B90021471812F8016B491C87F850600829F7DB3E2D06D0082D04D0BDE8F041801DE2F76AB8184697F792FA00281DD090F84A00012819D10F489AF7ECFD002084F8100284F8180294F80E0320F0040AFB0093440D000084F80E0340F23120B7F7C6F8BDE8F041B7F729B9491C60308E42C3DCBDE8F08108562000A85F20002458200090F85A10002905D1002301461A4618466CF737BC70477FB50D46164603246CF7BBFCE8B18DF800608DF80250F1B249B900218DF80110D0F86C016A4607216DF755F90CE0032180F8761190F877118DF80110D0F86C016A4607216DF773F90024204604B0706A
:F9750F00BD70B504460D466CF78AFCD4F86C1101B1891CE46E2B46A446BDE87040062260477CB501AB00930D464B7A8A1D044603216CF78FFC78B9002409E0281980796CF778FC18B12A4616216CF72DFC641C687AA042F2DC7CBD9DF80410297068702A46072120460AFB008A450D006DF73BF97CBD10B509490A7882420BD020B101200870ABF750FB05E00020087004490870ABF789FB002010BD00009C1720005117200004F0ABBB67F768B910B54FF44811E8B1012829D0022844D151F88C0F20F003000860086840F002000860086820F470400860086840F440400860086820F470200860086840F44020086026E051F88C0F20F0030008600866
:F97608006840F0030008601A4920200860886018E051F88C0F20F003000860086840F002000860486820F470204860486840F440204860486820F070604860486840F050604860FEF78BFB002010BD042010BDFEF789BBFEF78EBBFEF7ADBB38B51C46049B009323463AF79EF8380AFB0081460D00BDFEF785BB00008C62330000F00F01000956F79FBE39F7F5BF000010B5022907D1012805D104480078012801D150F7DEFD002010BD00002127200070B598B0044600F1180506216846D1F7C7FA062221466846D1F7DAFA401C47D1594906220E462046D1F7D2FA401C3FD1062229466846D1F7CBFA401C38D1062231462846D1F7C4FA401C31D10622
:F977010022294612A8D1F72FFB062221460CA8D1F72AFB062322460CA90CA8D1F71BFB06232246214606A8D1F727FB0623224606A906A8D1F721FB4049062306AA243906A8D1F723FB062306AA0CA906A8D1F714FB062206A912A8D1F794FA10B9012018B070BD0020FBE770B5A0B0044600F10AFB0078470D00200508216846D1F76DFA082221466846D1F780FA401C47D12D4908220E462046D1F778FA401C3FD1082229466846D1F771FA401C38D1082231462846D1F76AFA401C31D10822294618A8D1F7D5FA0822214610A8D1F7D0FA0823224610A910A8D1F7C1FA08232246214608A8D1F7CDFA0823224608A908A8D1F7C7FA1449082308AA243B
:F977FA003908A8D1F7C9FA082308AA10A908A8D1F7BAFA082208A918A8D1F73AFA10B9012020B070BD0020FBE710B504460848006891F701FF0028204602D0BDE8104099E7BDE810403CE70000C4A12000A8A2200010A0200010B51648FFF7E6FF08B9012010BD002010BD2DE9FF41114F04463F1F0D46160AFB006F480D0046381DFFF7D7FF88B13A680D492832CDE90225CDE9006107F16402A2F11001234601F12000A1F7DDFBBDE8FF81284604B0BDE8F0410621A1F797BC000014A02000045121003021364899F73CB910B5344902684A6242688A620089888500F032F8012010BD70B504460D4616460C2001F0BEFA002808D0046045600681BD4F
:F978F300E870400146284857F716B870BD002211461046E8E710B5017D01220446032901D004290AD1002A08D0626A0AB1A16A90472046BDE810408EF71EBA10BD182192F71CB80020704710B5164C606A0028204608D1CAF724FD002821D02046BDE810408CF7E7B9CAF71BFD10B120468CF7E1F90320E0740D4801680AFB0066490D0020468CF77BF8252020740020A074E073A073A18DE18384F82000A0832046BDE810408BF759BF10BD0000CC6D2100BD480D00BC6B21002DE9F043044690F857008DB0C10602AF04F1280909D50622494602A89BF75AF806224946B81D9BF755F8204691F733FECB4D04F168064FF00008002851D020688AF75F2D
:F979EC00F800F12C01102205A89BF742F894F8A300410701D400070FD5204691F76FFF58B394F8A300410701D4000725D5B4F8E600C0F3C30004281FD0E06905AB01040029009394F8571004F594703B464FEAC16108DB002900DB0346284600DB30464A46AF4907E0002900DB0346284600DB3046AB4A4946A1F77AFB94F8A710C80AFB005D4A0D001F082825D8C1F11001CBB205A80021424603E0491C00F8012BC9B29942F9D317E094F85700C006002801DB04F18C079D483A464168284601F10D0100DB304609ABA1F792F994F8A70005AA09A9C7F7E1F9204691F714FF40B194F8A300410701D4000702D504F5987200E0002205A920468AF7D795
:F97AE500F8A58D206891F7FCFD064695F724F9074695F724F9884806604562384695F721F9E069C0F3C400082803D3012120469EF766FF814B0093E08C0023C0F380021121204690F733FAE069C0F3C401082905D2002803DA002120469DF7B5FF84F8A680A08C20F00400A084E06920F00040E061204691F7CAFEC8B194F8A300410701D400070AFB00544B0D000DD5012120469FF7B6F8204691F767FD28B1B4F8E60020F07800A4F8E60094F8A30020F0080084F8A300E069E18CC0F3C030C1F38001484080F0010120469EF723FE0DB0BDE8F0832DE9F041044690F8A6008CB013287ED004F1780080469EF76DFE94F8570001AFC00609D506224F69
:F97BDE004901A8C9F7F4FE06224C49B81D9AF74EFF204691F72CFD484D04F16806002852D0206889F75AFF00F12C01102204A89AF73DFF94F8A300410701D400070FD5204691F76AFE60B394F8A300410701D4000726D5B4F8E600C0F3C300042820D0E06904AB0204002A009394F8572004F5947004F128013B464FEAC26208DB002A00DB034600DB35460A0AFB004B4C0D004628462C4906E0002A00DB034600DB35462846284AA1F774FA94F8A710C81F082824D8C1F11001CBB2002104A80A4603E0491C00F8012BC9B29942F9D316E094F85700C006002801DB04F18C073A4600DB3546284608AB4146A1F78FF800E023E094F8A70004AA08A9C736
:F97CD700F7DCF8204691F70FFE40B194F8A300410701D4000702D504F5987200E0002204A9204689F7D2FF94F85700C00604D504A96CC9044810306CC020469EF7ADFD0CB0BDE8F0810000A8872000045121006414200000823100CD39070070B5044690F8CE0088B000EBC00101EB4010F149096801EBC005E088B4F81811884222D3B4F81A1188421ED82089A18B88420AFB00424D0D001AD16089E18B884216D1B4F8220110B9B4F8201149B1B4F84810B4F8202191420AD1B4F84A10814206D115F8830F40F00800287000204EE095F8830002AE20F0080085F883000F208DF80800B4F81801ADF80900B4F81A01ADF80B00A08BADF80D00E08BADD7
:F97DD000F80F00B4F81A21B4F8181194F8CE00731CA3F724FC9DF8111019B9ADF80900ADF80B000146731C01AA2046A3F7B2FB9DF8110084F81C01BDF81200A4F81E01002006EB400104EB40028989401CA2F828110628F5D394F8CE00182202A9D3F748FB00280CD115F8830F40F008002870072084F81D0194F8CE100820C2F771F908B070BD2DE9FC41044650680B4600F11005010AFB00394E0D007C007B1646182903D2AA4A525C824203D02046A3F784F814E10C2B47D1687884F8B9006888A4F8BA00A888A4F8BC00206B40F480702063800501D4206B07E000212046D8F7F8FE206B20F40070206341060AD4000519D42046A3F741FC94F8CE95
:F97EC900002021D3F789FB10E094F8CE00D3F775FBB4F8400020F01000A4F840002046C2F732F9206B20F04000206394F8B900082804D3002221460820B5F729FCB4F8BA000F28B8D12046A3F703FCCAE00F2BB2D194F8CD00012828D1B4F84000410503D4B4F84210490520D520F00100A4F84000B4F8420020F00100A4F84200B4F8400020F48060A4F84000B4F8420020F48060A4F84200206B0AFB00304F0D00800707D523212046D8F7ECFD206B20F002002063B4F8400038B1400502D50F22232190E00F222A218DE0B4F8420040F201473842F6D16D1C29462046A2F797FF00287BD194F8CD00012806D001AA29462046A3F72DFA00287ED02916
:F97FC200462046A2F7B4FF18B15649896889066AD52988A4F818116988A4F81A11A988A183E988E183297A84F81C11B5F80910A4F81E11002105EB410204EB4103B2F80B20491CA3F828210629F4D3002184F81D1168B129462046D8F7EFFD28B101460F222046A3F71FF835E0A4F8407032E0A4F84070206B40F00200206394F8CD00012808D1EB880093AB886A8829882046A3F710FB1BE094F782FE0746940AFB0027500D00F782FEB4F84A20B4F848102046B2F7E8F92888A4F844006888A4F84600A888A083E888E083384694F771FE2046A3F7D6F894F8CD0001280DD194F8CE002021D3F7A4FA07E00FE00BE0FFE70F221A212046A2F7DAFF703D
:F980BB0068BDE8FC410021A2F791BE0F222021F3E70F220146F0E770B50C46054601461548D3F76CFA144841194C740021017470BD3EB504468DF80010684609294FF0080202D104F1AC0100E00C49401C9AF7D1FC9DF80400092220F008008DF8040094F8CE006946D3F7D9F93EBD8C37200008E90D00D0BC2000E41B210008BD2000C07A70472DE9F0410546406C8FF747F904002ED0FF49FF4E142210312046CAF79BF80AFB001E510D00E18840F67B42881F904221D22289B2F5FA7F1DD260890A281AD3B0F5486F17D8521C4A43B2EB800F12DAE27882B108204B1E082B00DC481E824209DCA088884206D8607CC0F30400052801D3102802D90040
:F981B40020BDE8F08194F8CC00012180F700F994F8CC00C4F71FFD05F11C0001210746C3F74EFF01213846C3F74CFF00213846C3F7CFFE3068E064DA48001D0068A4F85000D7484FF44616D6F8981B0C30C1F3801184F85210D3490968C4F85C1195F8281084F853100068A062D5F783F840B1D6F8AC0BC00504D5686C8FF7D7F8D5F7BCF8E0884000A4F8C20094F8CC0095F788F8A1884FEA810101F104010844C0F35A00C4F8C800410AFB0015520D00010BD5B4F8C21080F08060B0FBF1F201FB1200A4F8C000022008E0B4F8C210B0FBF1F201FB1200A4F8C000002084F8D000012092E72DE9F14FB14894B004680127BB464FF0000A149E2546D6EE
:F982AD00F7A0FB4FF446110C90D1F8AC0B0E90A74802680F92406880B2109096F82720A548012A01D1007800E04078B074A3480078012805D1B07C96F82E20801A401CB074D1F8988BC8F38010139001460D900FA880F799F90B900E98C0F34100032837D19749934B0A68099249680A91997AC8F3C01008F00F09814206D106220DF12601181D99F706FD00B100270C98002843D00B9800BB002FFAD0D6F75DFB0028F6D009F087FA08B1204603E00AFB000C530D000FA90D98D6F70BFC002830D090F8361001292CD1408FC0077ED1149888F7DEFF3046C4F763FA15B0BDE8F08F002F73D0D6F73CFB00286FD0002C49D076480068C07A012801D0046D
:F983A6002842D194F8360001283CD194F82E00022550B106220FA904F1280099F7C1FC18B984F82E50254653E080F7E0FC50BB002105A80A460B468C4680E80E109DF83F008DF814009DF840008DF815009DF841008DF8160001AA05A904F1080080F7C8FB03220FA901A899F79BFC58B906220FA904F128009AF752FB84F82E5025464FF0010A25E0002523E00FA8D6F76CFB05001ED10FA8D7F786F8050007D11FFA88F12023464A1498C2F734FA11E084B1950AFB0003540D00F8370001280CD194F83700012808D1102204F1180105F1180099F76AFC0028D9D10E980107149800F11C0012901ED5C3F76AFD40B10FA94046C4F795FB83465FEA000B
:F9849F000A75D012E0BAF1000F0FD16FB164B109F0DEF948B1A0790D99884205D106220FA9204699F744FC00B10027B9F1050F5ED112981190C3F7C4FD002860D0002F5ED01198C3F73FFD800702D5BBF1000F1ED19DF7D2F9C0B10FA913989DF7CFF90446401C4CD01198C3F72DFD80070FD506AA07A920469DF7BEF998B307A9069880F756F8FF283BD002E0BBF1000F37D0706C8EF760FF04463046FFF70FFE00283FF425AF0CB1C4F85C51BAF1000F02D0149888F7F7FE0AFB00FA540D003046C4F76EF996F827000128706C81B20FD101200EE0000A3700D41A210060372000C06B2100040A37002C3720000CE003E00320C1F7EBFD07E0B9F10982
:F98598000F04D1A848807C08B1D5F7DEFEA648006800067FF5F2AEB9F1050F06D0B9F1030F03D0B9F1090F7FF4E8AE1FFA88F101239E4A1498C2F77BF9DFE62DE9F84F054690F828709A48DFF86CB206689A480090584690F8F8909848DFF860A290F8F84095F82E004FF0000830B1DAF8000095F82A1090F80E808173002080F7A4F89049084390490860D4F782FED4F7BAFE95F82E0088B1DAF8001081F80E8095F82E0050B101F0DFFE834695F82E0001F0EBFE00909BF81F90C47F020AFB00F1550D002F01D0032F08D13EB196F82F0020B106F130074FF0010807E007F00108414605F11C00C3F7E3FC0746DFF8CCA1062239460AF1040099F794E7
:F9869100FB8AF80A8039684FF4461ACAF8741BB988CAF8781BB9F1000F04D04A4659466D48C9F703FE012209F1060100207FF761FD95F82710DFF87C910746012901D0042926D101220C2100207FF753FD40F0010456B196F82E0038B1B16ACAF8B01BF16A89B2CAF8B41B0AE0296ACAF8B01B696A89B2CAF8B41B95F82600012801D144F08004DAF86C1B41F00801CAF86C1B35E0524871B91CB122460099C9F7C6FD0122A11D00207FF725FD40F0040047EA004424E0022920D11CB122460099C9F70AFB00E8560D00B5FD99F8120047F0060600284FF0010204F106014FF0000008D07FF70BFD40F00A0046EA0044D5F746FD08E07FF702FD40F00444
:F9878A000046EA004401E047F00204B8F1010F01D144F040145646CAF8684B04F00F00062808D199F8120024F00F0418B124F4702040F480244FF47F4000EA1420E1B20843C6F8840BA87B00217FF70BFE286C7FF777FCE86BC6F8F00B2448008AC6F80403BDE8F84F80F7F4BC10B52C2220492148C9F711F920491F480860AFF24D51816110BD1E4910B5884201D1002010BD1C4A1C4B002112781B680CE001EB410404EB011403EB8404844201F1010101D1C8B210BDC9B29142F0D3521CD0B210BD0000C01E210AFB00DF570D000004382000000A3700D41A210024BD200020BE20002C3720004001000D6C8B3100000837000009370008BD2000743E
:F9888300752600FC6D21006C372000381B2100491E200064372000FFF746B8FFF754B8002211461046FFF74FB8FFF73DB838B51C46049B0093234600F06DF838BD00F086B800004021774898F76EB970B5754C606A0028204608D1C9F792FD002849D02046BDE870408BF755BAC9F789FD10B120468BF74FFA0320E0746B48016820468BF7E9F8212020740025A57401206074A06B8EF7C6FDFF2823D000EBC00101EB40106249096801EBC000816C91F8CD10E173816C91F8CC10A173C18BE18390F8201084F82010808B20630AFB00D6580D00B4F93410401801D5E18B0844A0832046BDE870408AF7A8BFE573A573A08DE08384F820504FF6FF70F0B1
:F9897C00E770BD10B54A4902684A6242688A6202898A85028A8A8640698863FFF79DFF012010BD2DE9F04104460D4616461F461820DDF8188000F093FA00280CD00460456006820781C0F814800146AFF24900BDE8F04155F7E7BFBDE8F08108B500231A46194618460093FFF7DCFF08BD10B5304C636A4BB92046C9F709FD002821D02046BDE810408BF732BAE38B834206D1236B8B4203D194F82030934212D0E0832163B4F93400401801D5E18B0844A08384F82020012084F821002046BDE810408DF7D1B910BD017D0122032901D0040AFB00CD590D002904D1002A02D0002180F83C107047182190F7C3BF10B5044601218DF763FC00280EDB9463
:F98A7500F83C0000280AD1012184F83C10626A002A04D0A16A2046BDE81040104710BD00207047094A01211268824206D1027D0D2A01D1002901D18DF79CB970470000286E2100F46B21008C3720009C7E20008821554898F776B82DE9F0410646FFF7A6FEC5B251480078854244D850484E4F00EB451457F8350048B33046C9F78EFC28B34C4890F82700012820D00220E074F07BE073B07BA07307EBC5004168B06994F7C4FB20F00100A06125772046C9F775FCB0B9404920468AF7DBFF322020740020A074607420468AF753FF0CE02046C9F764FC0AFB00C45A0D0000280ED02046BDE8F0418BF78DB920468DF746F9207F012157F83020BDE8F023
:F98B6E00411047BDE8F08110B50446007D0121032801D004280ED100290CD0207F254951F83020002A06D0002190472046BDE810408BF7AFB810BD00207047182190F722BF1D4B1B78984201D900207047194B43F8301040F27121B2FBF1F103EBC00021F0010141600120704770B50446B0F848501548006840050ED4ABF741FB1349B0FBF1F04FF47A71484340F27121B0FBF1F020F0010005440220E074A069284420F07840A06120468DF7EBF82046BDE8704058E7000088702100491E2000686E2100381B210020E90D001437200075D1451730B48D4800238D0AFB00BB5B0D004C416901201A4694F8A94009E091F83A501DB18D6D0DB15B1CDBCF
:F98C6700B2521CD2B260319442F3D823B98449D1F8C41001B9002030BC0421ADF7F6BC70477CB511F8012B401EC3B2E92A3ED1012B3CD911F8010B5B1E0A46D9B2032815D1092933D30DF10501002012F8013B401C01F801390628F8DB71485178D0F8C43092F90220002B21D068461EE002281DD104291BD310785178947800EB012080B292F9035097F7BFFF644991F8A91088420CD0604900EB4000496901EB4010836D002B03D02A462146801D98477CBD2DE9F04186B0DDE90C780C4615461E46D00804D041F6A87006B0BDE8F0811422002101A899F7A8F80B208DF804000AFB00B25C0D0001208DF805008DF80850200A8DF809608DF806408DA1
:F98D6000F80A708DF807008DF80B800121AFF2E10031F752F9AFF2EB0301AA08214FF6E940B6F7C4FDD6E72DE9FC47DDE90A67894615469846022197F749FF040003D141F6AA70BDE8FC87B9F1000F03D01FB941F6A870F6E70027A765FFF748FFA0F5F851A639EED0F3B208F0FF02CDE900232188EBB24A460120FFF7A1FFE2E72DE9FC4104000D462948089916461F4600D10021C0F8C410FFF72AFFA0F5F851A63909D0FBB2F2B2CDE90023EBB2224600210220FFF784FFBDE8FC818021ADF72DBC1B49C1F8CC00704730B585B004460D4614220021684699F72EF803208DF800008DF8010AFB00A95D0D004001468DF8025000236A464FF62350B6ED
:F98E5900F75CFD05B030BD10B586B004461422002101A899F716F801208DF804008DF80540002301AA02214FF62350B6F746FD06B010BD08562000A85F200038B920007047704700207047704710B5012197F7C5FE002800D0C06D10BDF8B506000D464FF6FF740BD03046CBF77AF9C8B190F8E410304698F74AFCA04212D000E0FE208DF80000000A8DF801008DF8025000236A4603214FF62640B6F710FD08B90120F8BD0020F8BD8FF745BD8FF75DBD0000024641EA00200A4951F82220002A03D04FF000516DF761BF7047102806D8044B43F82010AFF22701FFF748BE002070471071210010B531F70AFB00A05E0D004BF9BDE8104060F7A1BF3158
:F98F5200F7CBB910B5A4F721F9BDE8104060F798BFA4F752B931F73CBDB6F71CBF70B500240D4601280AD100221146A4F70EF960F787FF04000AD12946012002E020B92946002031F76BFD01E040F20714204670BD40F20110704770B505460E4600F06BFA040016D066600420A081A07B4549012201EB8000016A2846A4F707FA60F760FFA0F5807105460B3905D0204660F752FF01E04FF48275284670BD38B504460D4631F700F84278017802F0E003807803EB012189B200F0FC0002F01F02042D21D004DC012D10D0022D39D114E0082D2FD00A2D34D16178207801F01F02618800F0FC0021F01F0113E02078620AFB00975F0D007800F0FC0002FF
:F9904B00F01F020CE0638823F01F0363809BB2194305E0638823F01F0363809BB299438DF8020001F0E00010448DF80100080A8DF80000684630F79FFF60F709FF38BD2078627800F0FC0002F01F02DBE740F2091038BD10B5044630F7ACFF017889B209026180427802F0E00211446180817801F0FC012170407800F01F006070002010BD0449FF2801D081F8280091F8280070470000E81021002DE9F04781466448884680684FF0150410F400774FF0010601D021240A2621463E2046F721F9050079D0E11EE81C90F781FCAE7085F8038048468EF794F904005BD0A08DA88094F8CD00A8710026D4F85C01002F69D094F852100AFB008E600D000028
:F9914400284ED004F14C0007467FF7A6FAB0B1D4F85C0190F82E10022910D180790622801CE871D4F85C1105F1080099F7D9FC0622394605F1140099F7D3FC0DE094F85210E9710622394605F1080099F7C9FC062105F1140090F740FC94F85300022801D003280CD1D4F85C0190F82F1039B100F13001062205F10E0099F7B2FC04E0062105F10E0090F728FCE18869832189A9836189E98394F8CD00A0B985F8206046E0E971062204F14C0105F1080099F798FC062105F10E0090F70FFC062105F11400E0E739E0607C410985F820102FE0B0B194F8521004F14C007FF73EFA78B1D4F85C0190F82E10022909D10146062205F1080099F7750AFB0047
:F9923D0085610D00FCD4F85C01807908E0062204F14C0105F1080099F76AFC94F85200E871E088E881208928826089688294F8CD0008B92E7502E0607C400928752846BDE8F047D7F7DEBABDE8F087D0BC200070B5D5F7E7FB6E4C6E4D20B12968887A091DD5F7A2FC20602868807B10B10420D3F781FFBDE87040C3F7BEB970B5C3F750FF02210446C1746348016820468AF728FC132121740021617494F827205F48012A01D1007800E04078A0745C480078012805D1A07C94F82E20801A401CA074E173A1732046C3F761F945F790FC93F76BFD054693F76BFDA07B94F706FA94F8270001280AD104F130008DF73BFC4D49606B0988084420F0704066
:F993360060630AFB007C620D00284693F759FD45F7A5FB04F11C0000210446C2F7D0FE2046BDE870400021C2F7C8BE7CB50546D5F77FFB3A4E002440B16846D1F755FCC0B26946D5F738FC306000E034602846C2F722FE10B10420D3F714FFA87CFFF794FFA87C00EB80013348006800EB4100C18819B94FF6FF7101817CBD04817CBD70B500250446C573807CC3F789FF2046C2F702FE08B18EF7C5F9264AA07C126800EB80004FF6FF7102EB400001811B48056070BD30B51A4A002112680846D37B012B04D1D27A012A01D1012030BD1A4A13681A4A14780EE001EB410202EB011203EB82021C32D57B012D02D1D27A012AEBD0491CC9B2A142EED3E0
:F9942F0030BD017370470D0AFB0073630D004A00EB8000126802EB4000062299F776BB817270470622001D99F770BBD41A21002C3720006C37200060372000C06B2100623720006837200064372000491E200070B51F4C06460025E07B38B1A089022804D1A26812B13146012090476D1CEDB21034022DF0D370BD40F21110704770B5134C0025E07B58B910220021204698F703FD0120E073A57300202060204670BD6D1CEDB21034022DECD3002070BD08490022CB7B23B18B89834201D101207047521CD2B21031022AF3D3002070470000E810210010B5002242F604219CF7F5F8C0B210BD10B50A4642F6A6219CF7EDF8C0B210BD70B505460C4680
:F9952800806CB3F706FD95F8C81004F10AFB006A640D009804890701D0D83000E09830B4FBF0F070BD70B50446857CFB4801220078A074002120468CF756FEA574A26CB2F8C2108B1E834200DC881EE17B21B9B2F84A10814200DC084640F2712141432046FFF7CEFF00B90120EC49088270BD2DE9F047EB4F04463D7800218CF7EEFEDFF8A493061E4FF0010803DA89F84580BDE8F08794F8790068B9A07B93F70DFFA16C4008D1F8C81093F798FE002804DC94F8790030B1002E04DD2046BDE8F047B2F74CBCE07B012804D194F8790008B984F8798094F872004FF4461140F08000C1F8A40694F8C80098B1B4F898000021000A7EF713FE00B17D783A
:F9962100CB4E08213088401B3080052087F7E9FC300AFB0061650D00882844308003E00821052087F7E1FC99F845000028B6D1B1F79EFE1421BD4897F7D8FABB4D0320A8742046FFF776FFB2F7B8FAA87C000705D5A06CD0F8F410491CC0F8F410B4F8860058B9B548007840B194F8190128B9B1F77EFEA87C40F00800A874002084F882002046B2F75CFA2046BDE8F0477EF7E6BD2DE9F041856C86B0044695F8CE60B1F754FF94F88300410720D5C006B1B207D50E20C0F784FD94F8830020F0160006E00820C0F77CFD94F8830020F0060084F883009A4800210068826A2046904728B190F8200010B12046B3F720F804F1A0010822884602A899F78C
:F9971A0016FA94F81A01DDE902238018002747EB0301CDE900010AFB0058660D0008226946404699F707FA04F1A8010822884602A899F700FA94F81B01DDE90223801847EB0301CDE9000108226946404699F7F2F984F81A7184F81B71E06F30B1CDE90407A07B04A993F7C4FFE76794F87900DFF8C481032845D0A07B93F72CFE4008D4F89C1093F7ADFDB4F8961089B181420FD83046B3F7EDF8032084F8790020468AF7CCFAB1B20520C0F711FD06B0BDE8F08194F87910032924D0B4F81C1181420BD9A07B47F765FD38B92046B3F7BCF818B92046B3F78DF848B198F80300A074A06CD0F8F810491CC0F8F8100DE094F8790038B9A07B5649085CBF
:F9981300032802D298F8020001E098F80100A07420468DF7BBFCC8B10226B50AFB004F670D00F8C22094F82010B5F8C000334687F7F0F8A5F8C00084F89470B5F8C000A083B5F8C200E08384F82060012084F8210050E000262046C4F741FD20B12046C5F752F8064642E0E07B01283FD1286B00031ED53B48006800071AD594F89400B8B1D4F8DC0078B9D4F8F00060B9B4F8800048B994F88300800705D1A07B47F7FFFC08B9A06C068984F89470E07B01281DD1A07B93F796FD4108A269B5F8C230701C00FB032020F0784093F711FDB0F1806F09D9B5F8C210C0F10060401C0844B0FBF1F0064402E0022800D2761C31462046B2F7EAFF94F80301B7
:F9990C0001283FF65DAF2046B2F772FF58E770B50546164804684FF0000120467EF796FC0AFB0046680D0004F00301012901D168B300E030B195F8C810890702D5042823DB001FE143890717D1FB281DDCE0B115E0A037200040D42000F86B2100507E20009C1220008337200090372000D020200004382000988B3100FB2805DCA00705D12846C4F7B2FC08B9002070BD012070BD70B50446007C0021BBF745FC84F802010026A4F8846084F8956094F81F01401C84F81F01E07B10B92046E8F701FDA06C90F8101129B1D0F8041101F10101C0F804115A480568A80730D594F81F01012812D15748807850B994F82F01062806D194F9020100B97F203E
:F99A050084F8300104E094F902112046C0F7CAFE4E4A507B022815D1A16C106891F8CE1088420FD1130AFB003D690D007B94F8020102F138015854107B401C0721B0FBF1F301FB1300107382F83F602046C4F745FFE5F718FBC5F34100032829D129462046FFF75FFF20B3A07B93F7C9FC4008C4F89C00E16F29B100EB510020F07840C4F89C002046B2F7CDFC2046B2F700FCE07B29460028204602D1B2F7B6FB01E0B2F775FB002120467EF71CFD84F8826034E02949012081F84400A807A06C0BD5D0F8EC10491CC0F8EC10A06CD0F80C11491CC0F80C110AE0D0F8E810491CC0F8E810A06CD0F80811491CC0F8081184F81E6129462046E5F794FA5D
:F99AFE00A8070BD5174994F882000978884205D2E17B19B1401C84F8820002E02046B2F7C3F92046E5F7B6FA94F80AFB00346A0D00160120F0040084F8160170BD10B52C220A490B48C7F7B3FF0A4909480860AFF2A311816110BD0000AC8B3100791E2000F0AD2000507E20007D372000CC752600547121009037200070B50122344C062811D2DFE800F0030C0C0C0C0C0B7A03B101232370CB8802EB1322CA8003E00B8802EB13220A80626872B190470546607840B1207830B10020274A6070126825490C209047284670BD852070BD20494860AFF25B0031F728BC1D49002048600220CCF701BC08B5009313460A4601460220CCF708FC08BD014637
:F99BF700022031F727BC0A4601460220CCF72BBC0A460146022031F72ABCDEF76BB901004FF0000002D00846DEF7A8B97047020AFB002B6B0D00004FF0000004D0002902D01046DEF700BB704701004FF0000002D00846DEF794BC704731F7A3BF0000FC6B210080712100486C2100B4F7D9BD2FF78EBF30F736B830F716B810B506F03FFA80B210BDC8F791BDC9F7E5BB38B51C46049B00932346C9F72CFC38BD2FF7ADBFB4F7AFBFB4F77EBE08B906F0E0B92FF774BFB4F74ABC2FF7D6BE30B5A3B00D466C46694601F036FF294620462FF705FE040001D1CBF78CF9204623B030BD10B541F6A7742FF711FE204610BDC9F738BC7B488068704710B516
:F99CF00032F711F808B1002010BD41F6A67010BDF5E708B50022009205228DF800208DF801008DF8021000236A4603214FF65450B5F729FE0AFB00226C0D0008BD2DE9FF4F87B0DDE918A705460C469146182101A8DDF850B0DDF86880179E96F777FFA5F1200143F6E17201A8914218D2202C16D3B4F5804F13D8B8F1000F10DBB8F1040F0DDC67B15A4909788F4208D8B9F1040F05D826B1072E02D8BAF1040F04D941F6A8700BB0BDE8F08F01218DF804108DF80550290A8DF80610210A8DF808108DF809900A998DF80A10C01D8DF807400021C1F105021BF80220491C00F8012B0629F6DB159900F8011B0021C1F10502169B491C9A5C00F8012B24
:F99DE9000629F6DB067080F801A0877080F80380002301AA18214FF65450B5F7BBFDC4E72DE9F04389B006460D46174698462421684696F70FFF6C464F0AFB00196D0D00F02209222D01D82EB925B141F6A87009B0BDE8F083641C8DF8008020220021204698F75FF876B16DB11F2D00D91F25641C8DF80150002003E0315C04F8011B401CA842F9DBC5F11F00075500236A4649464FF65450B5F781FDD9E70323C3E70223C1E710B5FFF780F8C0B210BDC9F77FBE0300104601D0DEF73FBEDEF75BBE104981F82800704770B50C4641F6AA75022193F70EFF0CB9A81E70BD60B190F84A102170B0F894106180B0F89610A180B0F89800E08000252846C5
:F99EE20070BD841D2100491E20000438200010B50A79032A09D84B791B2B00D92AB17B2B01D9032A01D3FB2B02D91221017010BD404A136823F00303136013680C790AFB00106E0D0004F0030443EA040313603B4B4A791A703A4B1A844A794FEAC20202F170025A844A799A844A794FEAC20202F17002DA84334A497911804FEAC102324B02F170021A80314B198031490A804FF00101C17010BD1CB500208DF80500D5F73DFA8DF8070001208DF8010002228DF806200DF1060300214FF6E94045F7E9FC1CBDF0B50C46054604F115008BB0097D07467EF7A3FB18B1122028700BB0F0BDAFF24D061B480068C00705D0D4F774FD10B90120D5F740FAEF
:F99FDB00207D39468DF8040001AF0622781C98F7CDFD1022211DF81D98F7C8FD10210DF11B008FF73FFD314601A802F099F910F0FF002870D6D1052085F83000D2E700001487310AFB00076F0D0000AA372000A0362100206C2100226C2100246C2100266C2100F03720002DE9FC41C64C15461E4623780027089A2770CDE90023646833462A46A047BDE8FC81B5F795BC30F7F5B8A3F7D2B8A3F77FB8A3F796B830F733B82FF7F9B9B8494860AFF243002FF76BBA38B51C46049B0093234697F701FB38BD97F72ABB10B541F6B174012196F703FE204610BD2FF763BA2DE9F0410746FC26884641F6A675304698F712FB04000ED032460021204697F7DE
:F9A0D40022FF04F10C004246394697F7C7FE204630F753F905462846BDE8F08138B51C46049B0093234630F71CFD38BDB6F73DB8B6F797B970B504460D460846C8F7DCFB28B1E1B22846BDE80AFB00FE6F0D00704035F7C8BD29462046BDE87040B6F789B9B6F7B7B970B504460D46C8F7C8FB00282946204603D0BDE8704035F72FBEBDE8704030F749BD30F77FBD7CB51C46DDE90656089B32B1CDE900632B462246B6F723FA7CBD2B46224602B0BDE87040B6F7F9B97CB51C46DDE90656089B32B1CDE900632B46224630F7DBFD7CBD002300932B46224630F770FD7CBD01B1172135F7A5BD1CB50C46014606220DF1010097F758FE8DF8004068467F
:F9A1CD0035F718FE1CBD35F7BDBD41F6A770704730B5A3B00546CAF72BF804001DD00121284697F7DCFA20B1012128462FF75CFA48B90221284697F7D2FA38B1022128462FF752FA10B1042023B030BD200AFB00F5700D0046CAF73AF800212846B5F701FC06222946684697F723FE68462FF777FB0020ECE741F6A77070474A49C1F8CC007047002241F6A7700A70704710B5044601290ED12078002340F0C000207022460621762006F005FE2046BDE8104005F016BF2046BDE8104000212FF7A2BE002803D041F6A371084480B2704710B596F730FFBDE81040F2E738B50C460021009121706946B5F76DFC002812D09DF80010490703D5217841F03A
:F9A2C600010121709DF80010CA0606D523780422890600D402221343237038BD01EB810080006422B0FBF2F0081A1F4988607047704770477047C9F7D1BF1D48016841F000410160BEF727BC10B51948016821F000410AFB00EC710D000160BEF720FC17484FF4CA01C86010BDA2F75CBF10B50C46012196F7C5FC20B190F840002070002010BD042010BD2FF711BE10B520B1FEF7F6FD08B1002010BD042010BD10B501460020FEF7ECFD08B1002010BD042010BD046C2100A85F200058222000030004192DE9F04106468DF79EF804007AD0206BC00777D094F85210224604F14C008DF7A1F8050010D0E88D70B192F753FD074692F753FD15F8CE0FD0
:F9A3BF00B2F70EFB384692F74FFD2878D6F7A6FD30468DF7D3FC3046BCF701FE0120E085204679F754FEFF2004F13004207160714FF00005A571206820F4802040F4002044F830092046B1F741FA214844F21001006808422AD1940AFB00E3720D00F8CD0018B91D48006885701FE01C480078012818D13046C1F723FE054640F2154733464D223946174896F705FA25B100212846C1F78CFE09E0334655223946124896F7F9F902E011480068057400213046D6F7EFFA0E480068C0060BD51020A4F84000206B40F0400020632046BDE8F041A1F7E0B9BDE8F081F0372000343720002837200008000100080003002C372000143720001A48017861B98E
:F9A4B8001B4A194911601A49816001F5FC71C160194A41681160012101700078704708B916487047102805D20F49896801EB401020387047124901EB4010A0F50070704708B90F487047102805D20649C96801EB4010203870470949203101EB0AFB00DA730D004010A0F5007070470000106C2100F0C420006437200044CA20006837200024BD20009071210020BE20000E4A00F59C71138CA0F84031538CA0F84231938CA0F84431D28CA0F84621084A1388A0F848315388A0F84A319388A0F84C31D288CA82E4F715BC0000A0362100206C21002DE9F0438DB00546D0F73CFD95F85000002873D00BA8D0F77DFB8046D4F79EFAE8B141460BA87EF7C0
:F9A5B100BBF8C0B9D4F7A0FAA8B10BA94046D4F754FB80B190F8361001290CD1408FC00709D1284686F728FF01212846D0F754F90DB0BDE8F08395F84F0008B1012849D1AC6D95F851004FF00109E8B90BAB42462946284600F0A4FE0028E9D006220BA9040AFB00D1740D00F14C0098F7CCFA84F8528042460BA92846E3F7BBFE0028B7D0E148006880F8029080F80390D3E7D4F754FA002872D0D4F75AFA0028FAD0206B002720F00040206341460BA87EF767F8002864D095F82A00012817D10BA8D4F7C7FA18B90BA8D4F7E2FF38B1C179FF297CD00127C4F85C0178E0FBE0B5F842100423C94A2846C0F789F96FE0D4F85C61002E6BD096F82E0026
:F9A6AA0040B1062206F128010BA897F7C2FB08B901275FE096F8360001285BD17EF7DFFB002857D1002107A80A460B46884680E80E019DF82F008DF81C009DF830008DF81D009DF831008DF81E000DF12C0803AA07A906F108007EF7C4FA0322414603A897F797FBB0BB0AFB00C8750D0006220BA906F1280098F74EFA022086F82E00F079FF28C8D0D2F7D9FCC5E7A0E095F82A00D4F85C6101280BD102220BA94046D2F710FEFF2804D00BA94046D4F790FA06469EB1B179414510D106220BA9304697F76BFB50B9002086F82E00F0790127FF2801D0D2F7B2FCC4F85C6195F84F00012875D1002F73D08C490DF12608D4F85C610822091D09A8C7F767
:F9A7A300FFFD88480068C0F3C017394640467DF7C1FFF0B396F82F0068B1062206F13001404697F73DFB30B994F8530000284ED0012850D14BE096F8370001284BD17EF755FB002847D1002105A80A460B460F468EC09DF829008DF814009DF82A008DF815009DF82B008DF81600470AFB00BF760D004601AA05A906F118007EF73CFA0322394601A897F70FFB40BB0622414606F1300098F7C6F900E002E086F82F90C6E736B196F83700012802D1708FC00715D094F85300022801D187B903E003280DD1012F0BD138468CF7B5FF0622414697F7EAFA18B9206B40F00040206395F82A00012805D1E3F723FDFF2801D0D2F72CFC4F49A87C89788842C0
:F9A89C0002D12846E3F7DFFB28460DB0BDE8F0430121CFF7F6BF2DE9F05F866D814696F8534096F8525006F14C0820468CF786FF07464FF4461BDBF8400310F0010A07D0DBF8681BD9F8382041EA0241CBF8681BD4F705F920B3D6F85C0170B390F82E10022903D100F12808012501E005F001050AFB00B6770D00022C01D0032C0CD190F82F1011B1316B002902DA04F001040AE000F13007012406E0316B002903DA90F82F100029F4D138685E46CBF8B00BB888CBF8B40BD9F838002CB140F0400404E005F00105E1E720F04004D2F7F0FB80070ED4D8F80000C6F8740BB8F80400C6F8780B012D02D144F0800401E024F08004BAF1000F0BD0D6F8A9
